:10000000F8FF002011040000C7490000C7490000A4
:10001000C7490000C7490000C7490000C7490000A0
:10002000C7490000C7490000C7490000C749000090
:10003000C7490000C7490000C7490000C749000080
:10004000C7490000C7490000C7490000C749000070
:10040000FFFFFFFFFFFFFFFFFFFFFFFFFEFFFFFFFD
:1004100062B60BF045F9FEE70000204150003C00B9
:1004200050003C00510000000102030405060708CB
:10043000090A0B0C0D0E0F101112131415161718B4
:10044000191A1B1C1D1E1F202122232425262728A4
:10045000292A2B2C2D2E2F30313233343536373894
:10046000393A3B3C3D3E3F40414243444546474884
:10047000494A4B4C4D4E4FFFFF010203040506074E
:1004800008090A0B0C0D0E0F101112131415161774
:1004900018191A1B1C1D1E1F202122232425262764
:1004A000292A2B2C2D2E2F30313233343536373844
:1004B000393A3B3C3D3E3F40414243444546474834
:1004C000494A4B4C4D4EFFFFFF0001020304050754
:1004D00008090A0B0C0D0E0F101112131415161724
:1004E00018191A1B1C1D1E1F202122232425262714
:1004F000292A2B2C2D2E2F303132333435363738F4
:10050000393A3B3C3D3E3F404142434445464748E3
:10051000494B4C4D4E4FFFFFFFFF01020304050600
:100520000708090A0B0C0D0E0F10121314151617DD
:1005300018191A1B1C1D1E1F2021222324252627C3
:10054000292A2B2C2D2E2F303132333435363738A3
:10055000393A3B3C3D3E4041424344454647484989
:100560004A4B4C4D4EFFFFFFFFFF00010203040505
:100570000708090A0B0C0D0E0F1011121314151693
:1005800018191A1B1C1D1E1F202122232425262773
:10059000292A2B2C2D2E2F30313233343536373853
:1005A0003A3B3C3D3E3F4041424344454647484933
:1005B0004B4C4D4E4FFFFFFFFFFFFF0102030405B1
:1005C000060708090A0B0C0E0F101112131415164A
:1005D0001718191B1C1D1E1F202122232425262726
:1005E000292A2B2C2D2E2F30313233343537383900
:1005F0003A3B3C3D3E3F4041424445464748494ADC
:100600004B4C4D4EFFFFFFFFFFFFFFFF01020304B6
:10061000050708090A0B0C0D0E0F101213141516FE
:100620001718191A1B1C1E1F2021222324252627D8
:10063000292A2B2C2D2E2F303132343536373839AC
:100640003A3B3C3D3E404142434445464748494B86
:100650004C4D4E4FFFFFFFFFFFFFFFFF0002030463
:1006600005060708090A0C0D0E0F101112131416B7
:100670001718191A1B1C1D1F202122232425262789
:10068000292A2B2C2D2E2F3031333435363738395B
:100690003A3C3D3E3F4041424344464748494A4B2D
:1006A0004C4D4EFFFFFFFFFFFFFFFFFFFF01020367
:1006B00004050708090A0B0C0D0E1011121314156E
:1006C0001618191A1B1C1D1E1F212223242526273C
:1006D000292A2B2C2D2E2F31323334353637383A08
:1006E0003B3C3D3E3F4042434445464748494B4CD6
:1006F0004D4EFFFFFFFFFFFFFFFFFFFFFF00010366
:100700000405060708090B0C0D0E0F101213141523
:100710001617181A1B1C1D1E1F21222324252627ED
:10072000292A2B2C2D2E2F31323334353638393AB5
:100730003B3C3D3E4041424344454748494A4B4C7F
:100740004D4FFFFFFFFFFFFFFFFFFFFFFFFF010216
:100750000304050708090A0B0C0E0F1011121315DC
:10076000161718191B1C1D1E1F202223242526279F
:10077000292A2B2C2D2E3031323334353738393A63
:100780003B3D3E3F4041424445464748494B4C4D26
:100790004EFFFFFFFFFFFFFFFFFFFFFFFFFFFF0118
:1007A0000204050607080A0B0C0D0E101112131493
:1007B000151718191A1B1D1E1F2021232425262753
:1007C000292A2B2C2D2F3031323335363738393B0F
:1007D0003C3D3E3F40424344454648494A4B4C4ECF
:1007E0004FFFFFFFFFFFFFFFFFFFFFFFFFFFFF00C8
:1007F000020304050708090A0B0D0E0F101213144B
:10080000151618191A1B1C1E1F2021232425262704
:10081000292A2B2C2D2F30313234353637383A3BBC
:100820003C3D3E4041424345464748494B4C4D4E76
:10083000FFFFFFFFFFFFFFFFFFFFFFFFFFFFFFFFC8
:10084000010203050607080A0B0C0D0F1011121404
:10085000151617191A1B1C1D1F20212224252627B7
:10086000292A2B2C2E2F30313334353637393A3B69
:100870003C3E3F40414344454648494A4B4D4EFF6C
:10088000FFFFFFFFFFFFFFFFFFFFFFFFFFFFFFFF78
:1008900000020304050708090A0C0D0E0F111213BC
:1008A00014161718191B1C1D1F202122242526276A
:1008B000292A2B2C2E2F30313334353738393A3C16
:1008C0003D3E3F41424344464748494B4C4D4EFF15
:1008D000FFFFFFFFFFFFFFFFFFFFFFFFFFFFFFFF28
:1008E000FF010203050607090A0B0C0E0F10121375
:1008F00014151718191B1C1D1E202122242526271C
:10090000292A2B2C2E2F30323334353738393B3CC3
:100910003D3E40414244454647494A4B4D4EFFFF0C
:10092000FFFFFFFFFFFFFFFFFFFFFFFFFFFFFFFFD7
:10093000FF00010304050708090B0C0D0E1011122E
:1009400014151618191A1C1D1E1F212223252627CF
:10095000292A2B2D2E2F313233343637383A3B3C6F
:100960003E3F40424344454748494B4C4D4FFFFFB3
:10097000FFFFFFFFFFFFFFFFFFFFFFFFFFFFFFFF87
:10098000FFFF010203050607090A0B0D0E0F1112E6
:1009900013151617191A1B1D1E1F21222325262782
:1009A000292A2B2D2E2F313233353637393A3B3D1C
:1009B0003E3F414243454647494A4B4D4EFFFFFFAC
:1009C000FFFFFFFFFFFFFFFFFFFFFFFFFFFFFFFF37
:1009D000FFFFFF010304050708090B0C0D0F1012A0
:1009E00013141617181A1B1C1E1F21222325262735
:1009F000292A2B2D2E2F313234353638393A3C3DC9
:100A00003E40414344454748494B4C4D4FFFFFFF53
:100A1000FFFFFFFFFFFFFFFFFFFFFFFFFFFFFFFFE6
:100A2000FFFFFF000203050607090A0B0D0E101158
:100A30001214151718191B1C1E1F202223252627E8
:100A4000292A2B2D2E30313234353738393B3C3E74
:100A50003F404243454647494A4B4D4EFFFFFFFF4B
:100A6000FFFFFFFFFFFFFFFFFFFFFFFFFFFFFFFF96
:100A7000FFFFFFFF010204050708090B0C0E0F1111
:100A80001213151618191B1C1D1F2022232426279C
:100A9000292A2C2D2E303133343537383A3B3D3E20
:100AA0003F414244454748494B4C4EFFFFFFFFFF43
:100AB000FFFFFFFFFFFFFFFFFFFFFFFFFFFFFFFF46
:100AC000FFFFFFFF000203040607090A0C0D0F10C9
:100AD0001213141617191A1C1D1F20212324262750
:100AE000292A2C2D2F303133343637393A3C3D3ECC
:100AF000404143444647494A4C4D4EFFFFFFFFFFEC
:100B0000FFFFFFFFFFFFFFFFFFFFFFFFFFFFFFFFF5
:100B1000FFFFFFFFFF0102040507080A0B0D0E107F
:100B20001112141517181A1B1D1E20212324262705
:100B3000292A2C2D2F303233353638393B3C3E3F75
:100B4000404243454648494B4C4EFFFFFFFFFFFFE5
:100B5000FFFFFFFFFFFFFFFFFFFFFFFFFFFFFFFFA5
:100B6000FFFFFFFFFFFF0103040607090A0C0D0F3B
:100B70001112141517181A1B1D1E202123242627B5
:100B8000292A2C2D2F303233353638393B3C3E3F25
:100B90004143444647494A4C4D4FFFFFFFFFFFFF8B
:100BA000FFFFFFFFFFFFFFFFFFFFFFFFFFFFFFFF55
:100BB000FFFFFFFFFFFF0002040507080A0B0D0EF1
:100BC000101213151618191B1C1E1F21232426276B
:100BD000292A2C2D2F3132343537383A3B3D3E40CF
:100BE0004243454648494B4C4EFFFFFFFFFFFFFF86
:100BF000FFFFFFFFFFFFFFFFFFFFFFFFFFFFFFFF05
:100C0000FFFFFFFFFFFFFF0103040607090B0C0EA8
:100C10000F1113141617191B1C1E1F21222426271F
:100C2000292A2C2E2F3132343537393A3C3D3F4179
:100C300042444547494A4C4D4FFFFFFFFFFFFFFF2E
:100C4000FFFFFFFFFFFFFFFFFFFFFFFFFFFFFFFFB4
:100C5000FFFFFFFFFFFFFF0002030507080A0C0D5F
:100C60000F1012141517191A1C1D1F2122242627D4
:100C7000292A2C2E2F3133343637393B3C3E404124
:100C800043444648494B4D4EFFFFFFFFFFFFFFFF28
:100C9000FFFFFFFFFFFFFFFFFFFFFFFFFFFFFFFF64
:100CA000FFFFFFFFFFFFFFFF0103040608090B0D15
:100CB0000E1012131517181A1C1D1F212224262787
:100CC000292A2C2E2F3133343638393B3D3E4042D1
:100CD000434547484A4C4DFFFFFFFFFFFFFFFFFF23
:100CE000FFFFFFFFFFFFFFFFFFFFFFFFFFFFFFFF14
:100CF000FFFFFFFFFFFFFFFFFF02030507080A0CCE
:100D00000E0F1113141618191B1D1F20222425273E
:100D1000292B2C2E3031333537383A3C3D3F414278
:100D2000444648494B4D4EFFFFFFFFFFFFFFFFFFCB
:100D3000FFFFFFFFFFFFFFFFFFFFFFFFFFFFFFFFC3
:100D4000FFFFFFFFFFFFFFFFFF0102040608090B83
:100D50000D0F1012141617191B1D1E2022242527F3
:100D6000292B2C2E3032333537393A3C3E40414323
:100D70004547484A4C4EFFFFFFFFFFFFFFFFFFFFC5
:100D8000FFFFFFFFFFFFFFFFFFFFFFFFFFFFFFFF73
:100D9000FFFFFFFFFFFFFFFFFFFF01030507090A3A
:100DA0000C0E1012131517191B1C1E2022242527A8
:100DB000292B2C2E3032343537393B3D3E404244CE
:100DC0004647494B4D4FFFFFFFFFFFFFFFFFFFFF70
:100DD000FFFFFFFFFFFFFFFFFFFFFFFFFFFFFFFF23
:100DE000FFFFFFFFFFFFFFFFFFFF00020406080AEF
:100DF0000B0D0F11131516181A1C1E202223252760
:100E0000292B2D2E30323436383A3B3D3F41434575
:100E100046484A4C4EFFFFFFFFFFFFFFFFFFFFFF6B
:100E2000FFFFFFFFFFFFFFFFFFFFFFFFFFFFFFFFD2
:100E3000FFFFFFFFFFFFFFFFFFFFFF0103050709A4
:100E40000B0C0E10121416181A1C1E1F2123252716
:100E5000292B2D2F31323436383A3C3E404244451E
:100E600047494B4D4FFFFFFFFFFFFFFFFFFFFFFF16
:100E7000FFFFFFFFFFFFFFFFFFFFFFFFFFFFFFFF82
:100E8000FFFFFFFFFFFFFFFFFFFFFFFF020406085A
:100E90000A0C0E1012131517191B1D1F21232527CD
:100EA000292B2D2F31333537393B3D3E40424446C7
:100EB000484A4C4EFFFFFFFFFFFFFFFFFFFFFFFF12
:100EC000FFFFFFFFFFFFFFFFFFFFFFFFFFFFFFFF32
:100ED000FFFFFFFFFFFFFFFFFFFFFFFF010305070E
:100EE000090B0D0F11131517191B1D1F2123252782
:100EF000292B2D2F31333537393B3D3F4143454772
:100F0000494B4DFFFFFFFFFFFFFFFFFFFFFFFFFF0D
:100F1000FFFFFFFFFFFFFFFFFFFFFFFFFFFFFFFFE1
:100F2000FFFFFFFFFFFFFFFFFFFFFFFFFF020406C2
:100F3000080A0C0E10121416181B1D1F212325273A
:100F4000292B2D2F313335383A3C3E404244464818
:100F50004A4C4EFFFFFFFFFFFFFFFFFFFFFFFFFFBA
:100F6000FFFFFFFFFFFFFFFFFFFFFFFFFFFFFFFF91
:100F7000FFFFFFFFFFFFFFFFFFFFFFFFFF00030576
:100F800007090B0D0F121416181A1C1E21232527F2
:100F9000292B2D2F323436383A3C3E4143454749C0
:100FA0004B4DFFFFFFFFFFFFFFFFFFFFFFFFFFFFB7
:100FB000FFFFFFFFFFFFFFFFFFFFFFFFFFFFFFFF41
:100FC000FFFFFFFFFFFFFFFFFFFFFFFFFFFF01042A
:100FD00006080A0C0F111315171A1C1E20222527AC
:100FE000292B2E30323436393B3D3F414446484A66
:100FF0004C4FFFFFFFFFFFFFFFFFFFFFFFFFFFFF64
:10100000FFFFFFFFFFFFFFFFFFFFFFFFFFFFFFFFF0
:10101000FFFFFFFFFFFFFFFFFFFFFFFFFFFF0002DC
:101020000507090B0E10121517191B1E2022252764
:10103000292B2E30323537393B3E40424547494B0C
:101040004EFFFFFFFFFFFFFFFFFFFFFFFFFFFFFF61
:10105000FFFFFFFFFFFFFFFFFFFFFFFFFFFFFFFFA0
:10106000FFFFFFFFFFFFFFFFFFFFFFFFFFFFFF018E
:101070000306080A0D0F121416191B1D202224271F
:10108000292C2E303335373A3C3E414346484A4DB1
:10109000FFFFFFFFFFFFFFFFFFFFFFFFFFFFFFFF60
:1010A000FFFFFFFFFFFFFFFFFFFFFFFFFFFFFFFF50
:1010B000FFFFFFFFFFFFFFFFFFFFFFFFFFFFFFFF40
:1010C000020407090C0E111316181B1D1F222427DA
:1010D000292C2E313335383A3D3F424447494C4E56
:1010E000FFFFFFFFFFFFFFFFFFFFFFFFFFFFFFFF10
:1010F000FFFFFFFFFFFFFFFFFFFFFFFFFFFFFFFF00
:10110000FFFFFFFFFFFFFFFFFFFFFFFFFFFFFFFFEF
:10111000010306080B0D101215171A1D1F22242794
:10112000292C2E313336393B3E404345484A4DFF4A
:10113000FFFFFFFFFFFFFFFFFFFFFFFFFFFFFFFFBF
:10114000FFFFFFFFFFFFFFFFFFFFFFFFFFFFFFFFAF
:10115000FFFFFFFFFFFFFFFFFFFFFFFFFFFFFFFF9F
:10116000FF0204070A0C0F121417191C1F21242751
:10117000292C2F313437393C3E414446494C4EFFEF
:10118000FFFFFFFFFFFFFFFFFFFFFFFFFFFFFFFF6F
:10119000FFFFFFFFFFFFFFFFFFFFFFFFFFFFFFFF5F
:1011A000FFFFFFFFFFFFFFFFFFFFFFFFFFFFFFFF4F
:1011B000FF000306080B0E111316191C1E2124270D
:1011C000292C2F3234373A3D3F4245484A4DFFFFE4
:1011D000FFFFFFFFFFFFFFFFFFFFFFFFFFFFFFFF1F
:1011E000FFFFFFFFFFFFFFFFFFFFFFFFFFFFFFFF0F
:1011F000FFFFFFFFFFFFFFFFFFFFFFFFFFFFFFFFFF
:10120000FFFF0104070A0D101215181B1E212427C9
:10121000292C2F3235383B3E404346494C4FFFFF87
:10122000FFFFFFFFFFFFFFFFFFFFFFFFFFFFFFFFCE
:10123000FFFFFFFFFFFFFFFFFFFFFFFFFFFFFFFFBE
:10124000FFFFFFFFFFFFFFFFFFFFFFFFFFFFFFFFAE
:10125000FFFFFF0306090C0F1215181B1E21242780
:10126000292C2F3235383B3E4144474A4DFFFFFF82
:10127000FFFFFFFFFFFFFFFFFFFFFFFFFFFFFFFF7E
:10128000FFFFFFFFFFFFFFFFFFFFFFFFFFFFFFFF6E
:10129000FFFFFFFFFFFFFFFFFFFFFFFFFFFFFFFF5E
:1012A000FFFFFF0104070A0D1114171A1D20232642
:1012B0002A2D303336393C3F4346494CFFFFFFFF70
:1012C000FFFFFFFFFFFFFFFFFFFFFFFFFFFFFFFF2E
:1012D000FFFFFFFFFFFFFFFFFFFFFFFFFFFFFFFF1E
:1012E000FFFFFFFFFFFFFFFFFFFFFFFFFFFFFFFF0E
:1012F000FFFFFFFF0206090C0F1316191D202326FE
:101300002A2D3033373A3D4144474A4EFFFFFFFF15
:10131000FFFFFFFFFFFFFFFFFFFFFFFFFFFFFFFFDD
:10132000FFFFFFFFFFFFFFFFFFFFFFFFFFFFFFFFCD
:10133000FFFFFFFFFFFFFFFFFFFFFFFFFFFFFFFFBD
:10134000FFFFFFFF0004070B0E1215181C1F2326BA
:101350002A2D3134383B3E4245494CFFFFFFFFFF09
:10136000FFFFFFFFFFFFFFFFFFFFFFFFFFFFFFFF8D
:10137000FFFFFFFFFFFFFFFFFFFFFFFFFFFFFFFF7D
:10138000FFFFFFFFFFFFFFFFFFFFFFFFFFFFFFFF6D
:10139000FFFFFFFFFF0205090D1014181B1F232676
:1013A0002A2D3135383C4043474B4EFFFFFFFFFFAE
:1013B000FFFFFFFFFFFFFFFFFFFFFFFFFFFFFFFF3D
:1013C000FFFFFFFFFFFFFFFFFFFFFFFFFFFFFFFF2D
:1013D000FFFFFFFFFFFFFFFFFFFFFFFFFFFFFFFF1D
:1013E000FFFFFFFFFFFF03070B0F13171B1E222634
:1013F0002A2E3235393D4145494DFFFFFFFFFFFFA2
:10140000FFFFFFFFFFFFFFFFFFFFFFFFFFFFFFFFEC
:10141000FFFFFFFFFFFFFFFFFFFFFFFFFFFFFFFFDC
:10142000FFFFFFFFFFFFFFFFFFFFFFFFFFFFFFFFCC
:10143000FFFFFFFFFFFF0105090D12161A1E2226EE
:101440002A2E32363A3E43474B4FFFFFFFFFFFFF46
:10145000FFFFFFFFFFFFFFFFFFFFFFFFFFFFFFFF9C
:10146000FFFFFFFFFFFFFFFFFFFFFFFFFFFFFFFF8C
:10147000FFFFFFFFFFFFFFFFFFFFFFFFFFFFFFFF7C
:10148000FFFFFFFFFFFFFF03070C1014191D2126AC
:101490002A2F33373C4044494DFFFFFFFFFFFFFF3A
:1014A000FFFFFFFFFFFFFFFFFFFFFFFFFFFFFFFF4C
:1014B000FFFFFFFFFFFFFFFFFFFFFFFFFFFFFFFF3C
:1014C000FFFFFFFFFFFFFFFFFFFFFFFFFFFFFFFF2C
:1014D000FFFFFFFFFFFFFF01050A0E13181C212667
:1014E0002A2F34383D42464BFFFFFFFFFFFFFFFF2F
:1014F000FFFFFFFFFFFFFFFFFFFFFFFFFFFFFFFFFC
:10150000FFFFFFFFFFFFFFFFFFFFFFFFFFFFFFFFEB
:10151000FFFFFFFFFFFFFFFFFFFFFFFFFFFFFFFFDB
:10152000FFFFFFFFFFFFFFFF03080D12171C21261F
:101530002A2F34393E43484DFFFFFFFFFFFFFFFFD7
:10154000FFFFFFFFFFFFFFFFFFFFFFFFFFFFFFFFAB
:10155000FFFFFFFFFFFFFFFFFFFFFFFFFFFFFFFF9B
:10156000FFFFFFFFFFFFFFFFFFFFFFFFFFFFFFFF8B
:10157000FFFFFFFFFFFFFFFFFF050A10151B2025E0
:101580002B30353B40464BFFFFFFFFFFFFFFFFFFC8
:10159000FFFFFFFFFFFFFFFFFFFFFFFFFFFFFFFF5B
:1015A000FFFFFFFFFFFFFFFFFFFFFFFFFFFFFFFF4B
:1015B000FFFFFFFFFFFFFFFFFFFFFFFFFFFFFFFF3B
:1015C000FFFFFFFFFFFFFFFFFF02080E14191F259B
:1015D0002B31373C42484EFFFFFFFFFFFFFFFFFF6D
:1015E000FFFFFFFFFFFFFFFFFFFFFFFFFFFFFFFF0B
:1015F000FFFFFFFFFFFFFFFFFFFFFFFFFFFFFFFFFB
:10160000FFFFFFFFFFFFFFFFFFFFFFFFFFFFFFFFEA
:10161000FFFFFFFFFFFFFFFFFFFF050B12181E2557
:101620002B32383E454BFFFFFFFFFFFFFFFFFFFF61
:10163000FFFFFFFFFFFFFFFFFFFFFFFFFFFFFFFFBA
:10164000FFFFFFFFFFFFFFFFFFFFFFFFFFFFFFFFAA
:10165000FFFFFFFFFFFFFFFFFFFFFFFFFFFFFFFF9A
:10166000FFFFFFFFFFFFFFFFFFFF01080F161D2415
:101670002C333A41484FFFFFFFFFFFFFFFFFFFFF03
:10168000FFFFFFFFFFFFFFFFFFFFFFFFFFFFFFFF6A
:10169000FFFFFFFFFFFFFFFFFFFFFFFFFFFFFFFF5A
:1016A000FFFFFFFFFFFFFFFFFFFFFFFFFFFFFFFF4A
:1016B000FFFFFFFFFFFFFFFFFFFFFF050C141C24D0
:1016C0002C343C444BFFFFFFFFFFFFFFFFFFFFFFFA
:1016D000FFFFFFFFFFFFFFFFFFFFFFFFFFFFFFFF1A
:1016E000FFFFFFFFFFFFFFFF0102030304040505E7
:1016F000060607080809090A0A0B0B0C0D0D0E0E49
:101700000F0F1010111212131314141515151717AB
:10171000181819191919191C1C1D1D1D1D1D1D1D19
:10172000212121214C4C4B4B4A4A494948484747C3
:10173000464545444443434242414140403F3E3E8A
:101740003D3D3C3C3B3B3A3A393939373736363503
:10175000353434343434313130302F2F2F2F2F2F74
:1017600000B0034000B00B4000000000000000008B
:101770000000000000000000000000000000000069
:101780000000000000004E6F6E4D61736B61626C73
:101790006500000000486172644661756C74000069
:1017A000000000004D656D4D616E6167656D656E91
:1017B0007400004275734661756C7400000000008F
:1017C000000055736167654661756C740000000028
:1017D0000000000000000000000000000000000009
:1017E00000000000000000000000000000000000F9
:1017F00000000000000000000000000000000000E9
:1018000000000000000000000000000000535643EC
:10181000616C6C000000000000000000446562750F
:10182000674D6F6E69746F72000000000000000069
:101830000000000000000000000050656E64535678
:101840000000000000000000005379735469636BCE
:101850000000000000000000444D41300000000086
:1018600000000000000000444D4131000000000075
:10187000000000000000444D413200000000000064
:101880000000000000444D41330000000000000053
:1018900000000000444D4134000000000000000042
:1018A000000000444D413500000000000000000031
:1018B0000000444D41360000000000000000000020
:1018C00000444D413700000000000000000000000F
:1018D000444D4138000000000000000000000044BA
:1018E0004D41390000000000000000000000444DA0
:1018F00041313000000000000000000000444D4174
:10190000313100000000000000000000444D413172
:101910003200000000000000000000444D4131335F
:1019200000000000000000000000444D4131340080
:10193000000000000000000000444D41313500006F
:101940000000000000000000444D415F4572726FCE
:10195000720000000000004D434D00000000000038
:101960000000000000004654464C0000000000004B
:101970000000000000526561645F436F6C6C697326
:10198000696F6E004C56445F4C56570000000000D3
:101990000000004C4C570000000000000000000058
:1019A00000005761746368646F6700000000000006
:1019B00000524E4700000000000000000000000040
:1019C00049324330000000000000000000000049E0
:1019D00032433100000000000000000000005350BE
:1019E0004930000000000000000000000053504992
:1019F0003100000000000000000000005350493298
:101A0000000000000000000000000043414E305F75
:101A10004F525F4D425F6275660043414E305F42F8
:101A200075735F4F666600000043414E305F45723C
:101A3000726F72000000000043414E305F54785FC7
:101A40005761726E696E6743414E305F52785F57DF
:101A500061726E696E6743414E305F57616B655FBF
:101A6000557000000052657365727665643531000B
:101A700000000000526573657276656435320000BF
:101A800000000043414E315F4F525F4D425F62752F
:101A9000660043414E315F4275735F4F66660000DA
:101AA0000043414E315F4572726F720000000000CA
:101AB00043414E315F54785F5761726E696E674380
:101AC000414E315F52785F5761726E696E67434174
:101AD0004E315F57616B655F557000000052657352
:101AE00065727665643539000000000052657365E3
:101AF0007276656436300000000000554152543063
:101B00005F52585F54580000000055415254305FF6
:101B100045525200000000000055415254315F52BE
:101B2000585F54580000000055415254315F4552EF
:101B30005200000000000055415254325F52585F7D
:101B400054580000000055415254325F4552520033
:101B5000000000000055415254335F52585F545802
:101B60000000000055415254335F455252000000BE
:101B700000000055415254345F52585F54580000E1
:101B8000000055415254345F45525200000000009D
:101B90000055415254355F52585F545800000000C0
:101BA00055415254355F455252000000000000413B
:101BB00044433000000000000000000000004144E9
:101BC00043310000000000000000000000434D50C1
:101BD000300000000000000000000000434D5031C4
:101BE0000000000000000000000000434D503200E3
:101BF0000000000000000000000046544D300000CE
:101C000000000000000000000046544D31000000BC
:101C1000000000000000000046544D3200000000AB
:101C200000000000000000434D54000000000000D0
:101C300000000000000052544300000000000000BB
:101C400000000000005265736572766564383300E9
:101C50000000000050495430000000000000000067
:101C60000000005049543100000000000000000056
:101C70000000504954320000000000000000000045
:101C80000050495433000000000000000000000034
:101C900050444230000000000000000000000055E9
:101CA00053423000000000000000000000005553C7
:101CB00042444344000000000000000000454E453F
:101CC000545F313538385F54696D6572454E4554FF
:101CD0005F5472616E736D69740000454E45545FC8
:101CE00052656365697665000000454E45545F4561
:101CF00072726F7200000000004932533000000021
:101D000000000000000000005344484300000000B1
:101D100000000000000000444143300000000000CB
:101D200000000000000044414331000000000000BA
:101D30000000000000545349300000000000000083
:101D4000000000004D4347000000000000000000BC
:101D50000000004C5054696D6572000000000000E6
:101D600000005265736572766564313032000000A0
:101D700000504F52544100000000000000000000DD
:101D8000504F52544200000000000000000000507C
:101D90004F52544300000000000000000000504F6C
:101DA00052544400000000000000000000504F5258
:101DB00054450000000000000000000052657365FB
:101DC00072766564313038000000005265736572C8
:101DD00076656431303900000000526573657276B3
:101DE00065643131300000000052657365727665BC
:101DF00064313131000000005265736572766564AC
:101E000031313200000000526573657276656431CD
:101E100031330000000052657365727665643131BC
:101E200034000000005265736572766564313135A7
:101E300000000000526573657276656431313600CA
:101E400000000052657365727665643131370000B9
:101E500000005265736572766564313138000000A8
:101E60000052657365727665643131390000000097
:101E7000008003400090034000800B4000900B4026
:101E800000F00F4040F00F4080F00F40C0F00F40D6
:101E900000F10F40006006400070064066000A1D19
:101EA00032000701640007106E0004067800040881
:101EB0008200040A8C00040C9600040EA00004109A
:101EC000AA000412B4000414BE000416C8000418CA
:101ED000D200041ADC00041CE100041DE600041E0C
:101EE000EB00041FF4000317FA00031813010106A6
:101EF0002C010214000109080090044000A00440D5
:101F000000B0044000C0044000D0044000A00640DF
:101F100000B0064000C0064000D0064000A00E40C1
:101F200000B00E400100010001000100210821085D
:101F300021082108210821082108210821083FF84B
:101F40000008000010401040104010403E40226049
:101F500042504248A44414440840084010402040E5
:101F6000404080400040204010A010A00110020816
:101F7000F4061110112011401180110015041904EC
:101F800010FC00001000100011FC10001000FC00FC
:101F900013FE10201020104010401C88E10443FE66
:101FA000010200006A6C6B6D6E090F0050515253B4
:101FB0000DC1110009030CD012401520173F185015
:101FC00019031A783200A00A63E0ACFF650C6600C2
:101FD000670029142C1E2A007E0C7F16802A814E51
:101FE0008261836F847B8586868E879788A489AF7C
:101FF0008AC58BD78CE88D204A00491347084B14BB
:102000004C17460522992303A6049B009CFFAB06B0
:102010009E119F02B0BD0000B0BD0000B0BD000029
:10202000B0BD0000B0BD0000B0BD0000B0BD0000FC
:10203000FFFFFFFFFFFFFFFFB2BD0000B0BD0000CC
:10204000B0BD0000FFFFFFFFFFFF00000204010121
:10205000283CFF1F783CFF1F283CFF1F283CFF1F28
:1020600000000000283CFF1F000000008820FF1F28
:102070007420FF1F000000000000000000000000AE
:102080000000000000000000000000000000000050
:1020900000000000DC05800080000132C800000064
:1020A0000000000000000000000000000000000030
:1020B0000000000000000000000000000000000020
:1020C0000000000000000000000000000000000010
:1020D0000000000000000000000000000000000000
:103350000000000000000000000000002DE9F8431C
:1033600000242000C0B2082808DA0022012114F14C
:103370004000C0B201F016F9641CF2E700220121FE
:10338000492001F00FF9012201214A2001F00AF938
:10339000012201214B2001F005F9002201214C20DE
:1033A00001F000F9002201214D2001F0FBF84FF45B
:1033B000A071492001F0CCF94FF4A0714A2001F02E
:1033C000C7F94FF4A0714B2001F0C2F94FF4A0717E
:1033D0004C2001F0BDF9DFF8000A00210160012155
:1033E00001604FF4FA7001F03EFADFF8D85901207D
:1033F0002860DFF8D46900203060DFF8D079002041
:103400003860DFF8CC89112088F80000DFF8C49913
:103410000020C9F800000120C9F800000120386030
:10342000782001F020FA0120286000203060002080
:103430003860B12088F800000020C9F800000120A1
:10344000C9F80000012038600120286001203060A8
:1034500000203860052088F800000020C9F800002E
:103460000120C9F8000001203860012028600120F7
:103470003060002038603A2088F800000020C9F849
:1034800000000120C9F800000120386001202860F8
:1034900001203060002038603A2088F800000020C9
:1034A000C9F800000120C9F800000120386001209F
:1034B00028600020306000203860B22088F80000CA
:1034C0000020C9F800000120C9F800000120386080
:1034D000012028600120306000203860052088F835
:1034E00000000020C9F800000120C9F800000120F8
:1034F00038600120286001203060002038603A20C8
:1035000088F800000020C9F800000120C9F8000078
:1035100001203860012028600120306000203860E0
:103520003A2088F800000020C9F800000120C9F8FE
:103530000000012038600120286000203060002059
:103540003860B32088F800000020C9F8000001208E
:10355000C9F8000001203860012028600120306097
:1035600000203860052088F800000020C9F800001D
:103570000120C9F8000001203860012028600120E6
:103580003060002038603A2088F800000020C9F838
:1035900000000120C9F800000120386001202860E7
:1035A00001203060002038603A2088F800000020B8
:1035B000C9F800000120C9F800000120386001208E
:1035C00028600120306000203860052088F8000065
:1035D0000020C9F800000120C9F80000012038606F
:1035E0000120286001203060002038603A2088F8EF
:1035F00000000020C9F800000120C9F800000120E7
:1036000038600120286001203060002038603A20B6
:1036100088F800000020C9F800000120C9F8000067
:1036200001203860012028600020306000203860D0
:10363000B42088F800000020C9F800000120C9F873
:103640000000012038600120286001203060002047
:103650003860072088F800000020C9F80000012029
:10366000C9F8000001203860012028600020306087
:1036700000203860C02088F800000020C9F8000051
:103680000120C9F8000001203860012028600120D5
:10369000306000203860282088F800000020C9F839
:1036A00000000120C9F800000120386001202860D6
:1036B0000120306000203860082088F800000020D9
:1036C000C9F800000120C9F800000120386001207D
:1036D00028600120306000203860842088F80000D5
:1036E0000020C9F800000120C9F80000012038605E
:1036F000012028600020306000203860C12088F858
:1037000000000020C9F800000120C9F800000120D5
:103710003860012028600120306000203860C0201F
:1037200088F800000020C9F800000120C9F8000056
:1037300001203860012028600020306000203860BF
:10374000C22088F800000020C9F800000120C9F854
:103750000000012038600120286001203060002036
:1037600038600C2088F800000020C9F80000012013
:10377000C9F8000001203860012028600120306075
:1037800000203860002088F800000020C9F8000000
:103790000120C9F8000001203860012028600020C5
:1037A000306000203860C32088F800000020C9F88D
:1037B00000000120C9F800000120386001202860C5
:1037C00001203060002038608C2088F80000002044
:1037D000C9F800000120C9F800000120386001206C
:1037E000286001203060002038602A2088F800001E
:1037F0000020C9F800000120C9F80000012038604D
:10380000012028600020306000203860C42088F843
:1038100000000020C9F800000120C9F800000120C4
:1038200038600120286001203060002038608A2044
:1038300088F800000020C9F800000120C9F8000045
:1038400001203860012028600120306000203860AD
:10385000EE2088F800000020C9F800000120C9F817
:103860000000012038600120286000203060002026
:103870003860C52088F800000020C9F80000012049
:10388000C9F8000001203860012028600120306064
:10389000002038600C2088F800000020C9F80000E3
:1038A0000120C9F8000001203860012028600020B4
:1038B000306000203860E02088F800000020C9F85F
:1038C00000000120C9F800000120386001202860B4
:1038D0000120306000203860052088F800000020BA
:1038E000C9F800000120C9F800000120386001205B
:1038F000286001203060002038601A2088F800001D
:103900000020C9F800000120C9F80000012038603B
:103910000120286001203060002038600C2088F8E9
:1039200000000020C9F800000120C9F800000120B3
:1039300038600120286001203060002038600E20AF
:1039400088F800000020C9F800000120C9F8000034
:10395000012038600120286001203060002038609C
:103960003A2088F800000020C9F800000120C9F8BA
:103970000000012038600120286001203060002014
:103980003860342088F800000020C9F800000120C9
:10399000C9F8000001203860012028600120306053
:1039A000002038602D2088F800000020C9F80000B1
:1039B0000120C9F8000001203860012028600120A2
:1039C0003060002038602F2088F800000020C9F8FF
:1039D00000000120C9F800000120386001202860A3
:1039E00001203060002038602D2088F80000002081
:1039F000C9F800000120C9F800000120386001204A
:103A0000286001203060002038602A2088F80000FB
:103A10000020C9F800000120C9F80000012038602A
:103A20000120286001203060002038602F2088F8B5
:103A300000000020C9F800000120C9F800000120A2
:103A400038600120286001203060002038603C2070
:103A500088F800000020C9F800000120C9F8000023
:103A6000012038600120286001203060002038608B
:103A7000002088F800000020C9F800000120C9F8E3
:103A80000000012038600120286001203060002003
:103A90003860012088F800000020C9F800000120EB
:103AA000C9F8000001203860012028600120306042
:103AB00000203860022088F800000020C9F80000CB
:103AC0000120C9F800000120386001202860012091
:103AD000306000203860102088F800000020C9F80D
:103AE00000000120C9F80000012038600120286092
:103AF0000020306000203860E12088F800000020BD
:103B0000C9F800000120C9F8000001203860012038
:103B100028600120306000203860042088F8000010
:103B20000020C9F800000120C9F800000120386019
:103B30000120286001203060002038601B2088F8B8
:103B400000000020C9F800000120C9F80000012091
:103B500038600120286001203060002038600D208E
:103B600088F800000020C9F800000120C9F8000012
:103B7000012038600120286001203060002038607A
:103B80000E2088F800000020C9F800000120C9F8C4
:103B900000000120386001202860012030600020F2
:103BA00038602D2088F800000020C9F800000120AE
:103BB000C9F8000001203860012028600120306031
:103BC00000203860292088F800000020C9F8000093
:103BD0000120C9F800000120386001202860012080
:103BE000306000203860242088F800000020C9F8E8
:103BF00000000120C9F80000012038600120286081
:103C00000120306000203860292088F80000002062
:103C1000C9F800000120C9F8000001203860012027
:103C200028600120306000203860282088F80000DB
:103C30000020C9F800000120C9F800000120386008
:103C4000012028600120306000203860262088F89C
:103C500000000020C9F800000120C9F80000012080
:103C60003860012028600120306000203860312059
:103C700088F800000020C9F800000120C9F8000001
:103C80000120386001202860012030600020386069
:103C90003B2088F800000020C9F800000120C9F886
:103CA00000000120386001202860012030600020E1
:103CB0003860002088F800000020C9F800000120CA
:103CC000C9F8000001203860012028600120306020
:103CD00000203860002088F800000020C9F80000AB
:103CE0000120C9F80000012038600120286001206F
:103CF000306000203860032088F800000020C9F8F8
:103D000000000120C9F8000001203860012028606F
:103D10000120306000203860122088F80000002068
:103D2000C9F800000120C9F8000001203860012016
:103D3000286000203060002038603A2088F80000B9
:103D40000020C9F800000120C9F8000001203860F7
:103D5000012028600120306000203860052088F8AC
:103D600000000020C9F800000120C9F8000001206F
:103D70003860012028600020306000203860292051
:103D800088F800000020C9F800000120C9F80000F0
:103D90000120386001202860002030600020386059
:103DA0002C2088F800000020C9F800000120C9F884
:103DB000000001203860DFF8C807007800F00EF836
:103DC000BDE8F1832810FE433010FE432C10FE4363
:103DD00080F00F402410FE433410FE4370B5040001
:103DE0002000C0B2042804DBC821DFF8980700F0E7
:103DF0007FFDDFF88C0704702000C0B2002808D0D7
:103E0000022800F07C81C0F0BF80032800F03082DF
:103E1000E2E2DFF8740701210160DFF87017002289
:103E20000A60DFF86C2700231360DFF86837362557
:103E30001D70DFF8645700262E6001262E600126D3
:103E400016600126066001260E6000261660C82650
:103E50001E7000262E6001262E60012616600126A7
:103E6000066000260E60002616602A261E700026B8
:103E70002E6001262E6001261660012606600126AE
:103E80000E600026166000261E7000262E60012699
:103E90002E60012616600126066001260E600026AF
:103EA000166002261E7000262E6001262E60012656
:103EB00016600126066001260E60002616600026A8
:103EC0001E7000262E6001262E6001261660012637
:103ED000066001260E600026166081261E700026F0
:103EE0002E6001262E60012616600126066000263F
:103EF0000E60002616602B261E7000262E600126FE
:103F00002E60012616600126066001260E6000263E
:103F1000166000261E7000262E6001262E600126E7
:103F200016600126066001260E6000261660032634
:103F30001E7000262E6001262E60012616600126C6
:103F4000066001260E600026166000261E70002600
:103F50002E6001262E6001261660012606600120D3
:103F60000860002010608220187000202860012066
:103F70002860012010608020DFF820160880802053
:103F8000DFF81C16088027E2DFF8FC05012101603C
:103F9000DFF8F81500220A60DFF8F425002313602B
:103FA000DFF8F03536251D70DFF8EC5500262E6061
:103FB00001262E60012616600126066001260E608D
:103FC00000261660A8261E7000262E6001262E6090
:103FD000012616600126066000260E600026166087
:103FE0002A261E7000262E6001262E6001261660ED
:103FF0000126066001260E600026166000261E704F
:1040000000262E6001262E6001261660012606601D
:1040100001260E600026166003261E7000262E6004
:1040200001262E60012616600126066001260E601C
:104030000026166000261E7000262E6001262E60C7
:10404000012616600126066001260E600026166015
:1040500082261E7000262E6001262E600126166024
:104060000126066000260E60002616602B261E70B4
:1040700000262E6001262E600126166001260660AD
:1040800001260E600026166000261E7000262E6097
:1040900001262E60012616600126066001260E60AC
:1040A0000026166002261E7000262E6001262E6055
:1040B000012616600126066001260E6000261660A5
:1040C00000261E7000262E6001262E600126166036
:1040D0000126066001200860002010608120187011
:1040E0000020286001202860012010608020DFF877
:1040F000AC1408808020DFF8A81408806CE1DFF899
:10410000880401210160DFF8841400220A60DFF8CE
:10411000802400231360DFF87C3436251D70DFF81F
:10412000785400262E6001262E6001261660012696
:10413000066001260E600026166008261E70002606
:104140002E6001262E6001261660012606600026DC
:104150000E60002616602A261E7000262E6001269C
:104160002E60012616600126066001260E600026DC
:10417000166000261E7000262E6001262E60012685
:1041800016600126066001260E60002616600226D3
:104190001E7000262E6001262E6001261660012664
:1041A000066001260E600026166000261E7000269E
:1041B0002E6001262E60012616600126066001266B
:1041C0000E600026166081261E7000262E600126D5
:1041D0002E60012616600126066000260E6000266D
:1041E00016602B261E7000262E6001262E600126EA
:1041F00016600126066001260E6000261660002665
:104200001E7000262E6001262E60012616600126F3
:10421000066001260E600026166003261E7000262A
:104220002E6001262E6001261660012606600126FA
:104230000E600026166000261E7000262E600126E5
:104240002E6001261660012606600120086000200D
:104250001060822018700020286001202860012052
:1042600010608020CD4908808020CD490880B3E0CF
:10427000C54801210160C54900220A60C44A0023E3
:104280001360C44B36251D70C34D00262E600126D9
:104290002E60012616600126066001260E600026AB
:1042A000166068261E7000262E6001262E600126EC
:1042B00016600126066000260E60002616602A267B
:1042C0001E7000262E6001262E6001261660012633
:1042D000066001260E600026166000261E7000266D
:1042E0002E6001262E60012616600126066001263A
:1042F0000E600026166003261E7000262E60012622
:104300002E60012616600126066001260E6000263A
:10431000166000261E7000262E6001262E600126E3
:1043200016600126066001260E60002616608226B1
:104330001E7000262E6001262E60012616600126C2
:10434000066000260E60002616602B261E700026D2
:104350002E6001262E6001261660012606600126C9
:104360000E600026166000261E7000262E600126B4
:104370002E60012616600126066001260E600026CA
:10438000166002261E7000262E6001262E60012671
:1043900016600126066001260E60002616600026C3
:1043A0001E7000262E6001262E6001261660012652
:1043B0000660012008600020106081201870002035
:1043C0002860012028600120106080207349088047
:1043D000802073490880FFE770BD73B46848007897
:1043E000C0070AD5BDF80000C01CADF80000BDF83C
:1043F0000200801CADF8020009E0BDF80000801C3E
:10440000ADF80000BDF80200C01CADF802005E4926
:10441000012008605D4A002010605D4B002018609C
:104420005C4C2A2020705C4D002028600120286010
:104430000120186001200860012010600020186031
:10444000BDF8000080B2000A207000202860012022
:104450002860012018600120086001201060002001
:104460001860BDF80000207000202860012028603E
:1044700001201860012008600120106000201860F1
:10448000BDF80000BDF8046016FA80F0401E00126E
:104490002070002028600120286001201860012081
:1044A00008600120106000201860BDF80060BDF8B1
:1044B00004008619701E20700020286001202860EA
:1044C00001201860012008600020106000201860A2
:1044D0002B20207000202860012028600120186017
:1044E000012008600120106000201860BDF8020063
:1044F00080B2000A2070002028600120286001207E
:104500001860012008600120106000201860BDF8CC
:10451000020020700020286001202860012018601F
:10452000012008600120106000201860BDF8020022
:10453000BDF8066016FA80F0401E001220700020C0
:1045400028600120286001201860012008600120F7
:10455000106000201860BDF80210BDF80600411878
:10456000481E20700020286001202860012018606B
:1045700073BC704709480088704709480088704735
:10458000873CFF1F78B800002810FE433010FE4320
:104590002C10FE4380F00F402410FE438E20FF1F9E
:1045A0009020FF1FF8B504000D0016004FF4807135
:1045B0002000C0B200F0CCF8280040B2002812D190
:1045C00061482100C9B2491150F821102200D2B22D
:1045D000521150F822004269012314F01F00834059
:1045E0009A434A6138E00121574A2000C0B2401185
:1045F00052F820002300DBB25B1152F823305B69D4
:1046000014F01F0711FA07F73B4343613000C0B2B3
:10461000002811D12000C0B2401152F820000368D8
:1046200014F01F00814033EA01012000C0B24011A4
:1046300052F8200001600FE02000C0B2401152F893
:104640002000036814F01F00814019432000C0B20D
:10465000401152F820000160F1BD70B504000D005A
:10466000394E2000C0B2401156F82000406914F0C5
:104670001F01C840C00703D46321344800F038F953
:104680002800C0B2002811D12000C0B2401156F855
:1046900020000168012214F01F0082409143200095
:1046A000C0B2401156F82000016010E02000C0B2F6
:1046B000401156F820000168012214F01F008240CA
:1046C00011432000C0B2401156F82000016070BDB7
:1046D00038B504001C4D2000C0B2401155F8200030
:1046E000406914F01F01C840C00703D47B2117485C
:1046F00000F0FEF82000C0B2401155F82010012251
:1047000014F01F008240CA6031BD38B504000E4D60
:104710002000C0B2401155F82000406914F01F017C
:10472000C840C00703D58C21084800F0E1F82000FC
:10473000C0B2401155F82000006914F01F04E04099
:1047400010F0010032BD0000781EFF1F48BA0000C3
:1047500030B42B4B1C684FF400750200D2B25209E2
:1047600095402C431C60274B0200D2B2521153F8E3
:104770002240012510F01F029540C4F8A05002000D
:10478000D2B2521153F822200300DBB213F01F0300
:1047900042F8231030BC704730B4194B1C684FF4FA
:1047A00000750200D2B2520995402C431C60154B93
:1047B0000200D2B2521153F82240012510F01F021C
:1047C0009540C4F8A05031F4E0610200D2B2521119
:1047D00053F822200400E4B214F01F0452F82420FD
:1047E00012F4E06211430200D2B2521153F82220B7
:1047F0000300DBB213F01F0342F8231030BC7047F4
:1048000038800440F01EFF1F10B4020052B2002A8C
:1048100009D50A01254B040064B214F00F042344A7
:1048200003F8042C04E00A01214B040064B21A5579
:1048300010BC704710B50400002C13D0B4F1807F79
:1048400003D329211B4800F053F81B4800210160C5
:104850001A490C6000211A4A1160052101600168A3
:10486000C903FCD510BD10B504002000441E00286B
:1048700004D014480068FFF7DDFFF6E710BD10B55F
:104880000400B4F1807F03D351210A4800F030F8CE
:104890000A4804600F215FF0FF30FFF7B5FF0020EA
:1048A0000749086007200449086010BD18ED00E0C2
:1048B00000E400E0F4B8000010E000E014E000E0E4
:1048C00018E000E0E43BFF1FDFF800F0C120FF1F0D
:1048D000DFF800F0E120FF1FBFF34F8F46490A6861
:1048E00012F4E062454802430A60BFF34F8FFEE7CF
:1048F00038B504000D00002000F08EF82A002100D9
:104900003F4800F0C9F8002000F0A6F84FF47A7094
:10491000FFF7A9FFF2E738B504000D00210049B206
:10492000002000F0C8F9200032BD10B5002404209A
:1049300000F0EEF9042000F025FA002842D1002012
:1049400000F06AF8042000F01DFA012801D10120CE
:104950000400002000F080F82A4800F09DF84FF491
:10496000FA70FFF780FF2000C0B20128EAD10420CE
:1049700000F008FA0028E5D1042000F003FA00282E
:1049800006D1002000F068F86420FFF76CFFF3E721
:10499000042000F0F7F9012806D1002000F05CF8AF
:1049A0003220FFF760FFF3E7174800F075F8FFF7D4
:1049B0008BFF6420FFF757FF0020FFF789FFFFF709
:1049C0008BFFBFE710BD10B510480468012000F050
:1049D00023F8012000F040F80D492200D2B20F2048
:1049E00042430A442100C9B20A4800F055F84FF486
:1049F0007A70FFF738FFECE70CED00E00400FA05F1
:104A00004CBB0000B4BC0000ECBB000004ED00E0B7
:104A10006017FF1FB8B8000010B50400200040B2B6
:104A2000042808D2012201211A4823005BB2C05C8D
:104A3000FFF7B8FD0FE0042004002000441E40B240
:104A4000002808D001220121124823005BB2C05C7B
:104A5000FFF7A8FDF1E710BD10B50400200040B23B
:104A6000042806D20B48210049B2405CFFF730FE13
:104A70000DE0042004002000441E40B2002806D0AF
:104A80000448210049B2405CFFF722FEF3E710BD65
:104A900000000000A41FFF1F0EB4C0B5024603A80B
:104AA00000210190009101AB0121044878440C30B1
:104AB00000F034FA06BC5DF810FB00BFD5710000B1
:104AC0002DE9F84304000D00200040B2002808D072
:104AD000022828D016D3042847D035D3052855D02E
:104AE00065E0DFF81402016851F4806101604FF461
:104AF00040716620FFF72CFE4FF440716720FFF7EE
:104B000027FE54E0DFF8F001016851F40061016014
:104B10004FF440714320FFF71BFE4FF440714420D7
:104B2000FFF716FE43E0DFF8D001016851F4805131
:104B30000160DFF8C86168213000FFF7D9FE7221FB
:104B40003000FFF7D5FE32E0DFF8AC01016851F428
:104B5000005101604FF440715020FFF7F9FD4FF410
:104B600040715120FFF7F4FD21E0DFF89401016866
:104B700051F4806101604FF440719920FFF7E8FD26
:104B80004FF440719820FFF7E3FD10E0DFF870016B
:104B9000016851F4006101604FF440718920FFF712
:104BA000D7FD4FF440718820FFF7D2FDFFE7DFF813
:104BB0005461200040B256F82000C07810F0F30095
:104BC000210049B256F82110C870200040B256F8B2
:104BD00020008078210049B256F82110887020000A
:104BE00040B2002803D0200040B2012806D1DFF8EF
:104BF000180107684FF47A70474305E0DFF80C01AD
:104C000007684FF47A7047432801B7FBF0F8404635
:104C100080B2B0F5005F02DB41F6FF708046B7FB63
:104C2000F5F9404680B2B9EB0019484680B2202819
:104C300003DBDC213148FFF75BFE200040B256F871
:104C40002000007810F0E000C8F3042101432200A6
:104C500052B256F822201170210049B256F82110A4
:104C600081F80180210049B256F82110897A11F0AB
:104C7000E00119F01F020A4323005BB256F823300B
:104C80009A72220052B256F82220127C52F0880208
:104C900023005BB256F823301A74220052B256F841
:104CA0002220D27852F00C0223005BB256F8233057
:104CB000DA70BDE8F183134A03005BB252F8233087
:104CC0001B791B06F7D503005BB252F82320D17184
:104CD000704770B504000D0016003000461E002815
:104CE00009D095F90000010049B2200040B2FFF759
:104CF000E2FF6D1CF1E770BD34800440B8BA0000DB
:104D000028800440041FFF1FE43BFF1FEC3BFF1FF4
:104D100038B50400200040B207280EDA794D002291
:104D20000021200040B2285CFFF73CFC032120005A
:104D300040B2285CFFF730FD15E00720040020009A
:104D4000441E40B200280ED06E4D002200212000EB
:104D500040B2285CFFF726FC0321200040B2285C0B
:104D6000FFF71AFDEBE731BD10B5040065482100DF
:104D700049B2405CFFF7C9FC002801D1002000E0E7
:104D8000012010BD10B50400200040B2FFF7ECFF79
:104D900000280AD10A20FFF766FD200040B2FFF785
:104DA000E3FF002801D1002000E0012010BD11B474
:104DB00055480178022920D0544A55499DF80030C1
:104DC0000C7802F814300B7802EB43029DF80130A6
:104DD00053700A78521C0A700A78142A01DB0022E8
:104DE0000A7009780A004B4B1B78D2B29A4202D162
:104DF0000222027001E00122027011BC704710B45F
:104E00000100414A1078002801D100201FE03F4BEB
:104E10004048047813F814400C70047803EB440302
:104E20005B784B7003785B1C03700378142B01DBF9
:104E300000230370364B1B7800781C00E4B2A042BC
:104E400002D10020107001E001201070012010BC80
:104E5000704738B50024200040B2072850DA2000FF
:104E600040B2FFF781FF002836D12B4D200040B221
:104E7000285C401C210049B26854200040B2285CE4
:104E800002283BDB200040B2285C022808D18DF8C4
:104E9000004000208DF801000098FFF788FF2DE00A
:104EA000200040B2285C332828DB200040B2285C78
:104EB00033280CD18DF8004002208DF801000098B5
:104EC000FFF775FF0220210049B2685416E0022066
:104ED000210049B2685411E00F4D200040B2285C17
:104EE000022807DB8DF8004001208DF801000098B2
:104EF000FFF75DFF0020210049B26854641CAAE757
:104F000031BD00009C1FFF1F863CFF1FF03BFF1FB1
:104F1000853CFF1F843CFF1F183CFF1F2DE9F04319
:104F20009FB00FF6A836269CDFF804898DF83B4029
:104F3000029100240B944FF0FF37044691461D4622
:104F40000AE019F8011B0298A0470028029000F01F
:104F5000A1800B98401C0B9099F8000050B12528B7
:104F6000EFD1002100220591069207910892099144
:104F70000A9203E00B98A0E041F0010119F8010F3B
:104F80002028F9D023280CD02B2804D02D2805D098
:104F9000302809D080E041F00201EFE741F0040140
:104FA000ECE741F00801E9E741F01001E6E70D9276
:104FB0000AE00D98404505DA00EB800002EB400264
:104FC000303A0D9209F1010999F80020A2F1300060
:104FD0000A28EED399F800002E2818BF0C9726D186
:104FE00019F8010F2A2808D12868286009F1010959
:104FF00050F8042B28600C9219E02D280CBF09F101
:105000000109002000220C920BE040B90C9A4245A5
:1050100005DA02EB820203EB4203303B0C9309F109
:10502000010999F80030A3F130020A2AEDD3ADF856
:105030003810304699F8001000F098FD08B119F8C2
:10504000010B8DF83A009DF83A00682805D199F8CF
:10505000000068280CD1622106E06C2804BF99F892
:1050600000006C2804D171218DF83A1009F1010972
:1050700010A804902A4619F8013B6946204600F022
:105080005CF838B910AA6946204600F086F9002875
:105090007FF562AF384610E02A2888D12A682A6056
:1050A00052F8040B2A6000280D9003D540420D9061
:1050B00041F0040109F101098CE71FB0BDE8F0835C
:1050C000622820D0682811D06A2803D06C2827D005
:1050D000712825D10868C01D20F007000860D0E9BC
:1050E000002308300860194610467047002A0A68F5
:1050F0000A60106803D0121D0A6000B217E0121D8A
:105100000A6080B217E0002A0A680A60106803D0BB
:10511000121D0A6040B20AE0121D0A60C0B20AE025
:10512000002A0A680A60106803D0121D0A60C117BD
:105130007047121D0A600021704770B51C460D466D
:10514000B4F125002E69114600F01581203802289F
:1051500063D9133840D00B3816D0401E1ED0401EE5
:1051600002285AD9001F19D0401F00F08180401E2C
:1051700032D0401E00F0CB80C01E00F0DA80801ECE
:105180002AD0C01E28D0FCE06869421C6A610A6807
:105190000A6052F8043B0A603354FCE095F83A0088
:1051A0000122FFF78DFFC5E90001002904D56869D8
:1051B000411C69612D220DE0288F810704D56869A3
:1051C000411C69612B2205E0C00721D56869411C9B
:1051D0006961202232541BE095F83A000022FFF763
:1051E0006FFFC5E9000195F83800010710D5D5E932
:1051F0000023002B08BF002A0AD044F020007828A2
:1052000006D1686930213154401C421C6A61345413
:10521000214668693044E86087E00868C01D20F0D6
:1052200007000860D0E9002308300860C5E90023C2
:10523000D5E90001C80F04D06869411C69612D22BD
:105240000DE0288F810704D56869411C69612B2214
:1052500005E0C00704D56869411C69612022325409
:1052600068693044E8602146284600F0C4F992E0BD
:1052700005F13A02507820B14FF0FF340FF6540098
:1052800062E01078622808D0682824D06A2812D0FA
:105290006C282ED071280ED02BE00A680A6052F8D4
:1052A000040B0A6020B94FF0FF340FF640004BE0CA
:1052B000E96A01706FE00A680A6052F8040B0A603C
:1052C00020B94FF0FF340FF624003DE0EA6AD3170F
:1052D000C0E900235FE00A680A6052F8040B0A6024
:1052E00020B94FF0FF340FF604002DE0E96A018089
:1052F00051E00A680A6052F8040B0A6020B94FF0C6
:10530000FF340FF2E8701FE0E96A016043E00A68C9
:105310000A6052F8040B0A60002120F0000221F01C
:10532000FF33C5E90023EE607821284600F0BBF882
:1053300031E00868086050F8044B0860EC603CB944
:105340004FF0FF340FF2BC7000F020FC201A70BD4B
:105350002E6B002E04D5204600F038FC044608E0F1
:1053600032460021204600F04DFC002814BF041BEB
:105370003446AC610FE06869411C696125223254F2
:1053800009E06969481C686125227254210002D035
:10539000431C6B613454002070BD2DE9FC410F4665
:1053A000064690467A6B7869396ABC6A121AB869FF
:1053B000521A796A121AF869521A121A97F83800B2
:1053C000141B41070FD42020002C8DF800000ADDAB
:1053D000254601236A463946304600F05FFB002827
:1053E0005DD16D1EF5D17B6942463946304600F0ED
:1053F00055FB002853D130208DF800003D6A002D68
:1054000009DD01236A463946304600F047FB002893
:1054100045D16D1EF5D1BB69FA683946304600F0BA
:105420003DFB00283BD130208DF800007D6A002D27
:1054300008DD01236A463946304600F02FFB70BB79
:105440006D1EF6D1F868B969FB69421839463046D5
:1054500000F024FB18BB30208DF80000BD6A002D41
:1054600008DD01236A463946304600F017FBB0B923
:105470006D1EF6D197F8380041070DD52020002C7D
:105480008DF8000008DD01236A463946304600F0F9
:1054900005FB20B9641EF6D10020BDE8F6814FF06F
:1054A000FF30BDE8F6812DE9FC4307466F293E69D0
:1054B00008BF082405D041F02000782814BF0A2432
:1054C00010243C25D7E90023642918BF6929904698
:1054D000994605D1002B03D5D8F1000869EB49099D
:1054E000B9F1000F08BFB8F1000F1FD1386BE8B950
:1054F000082C4CD197F83800010748D530203B25BF
:1055000086F83B0043E000280ED597F8380000F0FD
:105510001400102808D17B6B7969386A5B1A1B1A52
:105520009A1A002AC8BF3A62BDE8F3838DF80010CA
:10553000404649462246E31700F090FB3032D0B295
:105540006D1E3A28019504DB9DF80000A0F1510181
:105550008A187255404649462246E31700F07EFB02
:1055600080465FEA010908BFB8F1000F03D0F86870
:1055700071198842DCD3082C09D197F8380001074B
:1055800005D5705D302802D06D1E30207055C5F1F4
:105590003C02BA617119F960386B8242B3DA821A3F
:1055A0003A624FF6EF70398F01403987BDE8F383D7
:1055B0002DE9D04306460F4614464FF00008DFF8A9
:1055C000749212E0E00707D542464B463046394612
:1055D00000F05CFC06460F464046494642464B46B4
:1055E00000F054FC641080468946002CEAD1304615
:1055F0003946BDE8D0832DE9F047064689468EB08E
:10560000D6E90001CDE9020104AC306B002802D5D7
:105610000620306305E001BF49F020006728012122
:105620003163D6E9002358004015401C0DD1190301
:105630000BD0A9F1610103201A29B06102D20FF247
:10564000E04110E00FF2DC410DE059004915491C22
:105650000ED118030CD1A9F1610103201A29B06100
:1056600016D30FF2C841F068032200F0E1FCDBE042
:1056700023F00047B7F5801F1046194622F00005B9
:105680000DD20022002F08BF002D019203D116E099
:105690000FF29441E7E701AA00F01EFD08E066481A
:1056A000664900EB175001906548034010461943C6
:1056B000019B644D47F29752534393FBF5F2C6E9C1
:1056C000000120F0000331F0004104BF002B002353
:1056D00000F0A280DDE90240019220F00045D2F105
:1056E000070204DD20462946FFF762FF0AE0524226
:1056F00000205549FFF75CFF02460B46204629462D
:1057000000F022FD044649F0200ABAF1660F306B22
:1057100006BF019D0A3506252D18142DC8BF142576
:10572000302088468DF810000DF11107002D33DD73
:105730002046414600F02CFE01460A4607F10803C8
:1057400004200A27B2FBF7F707EB870EA2EB4E0205
:10575000303203F8012C0A22B7FBF2F202EB820E80
:10576000A7EB4E073037401E03F8027DE9D1083D14
:10577000002D03F10807D9DD084600F01DFE0246A2
:105780000B462046414600F025FE00222F4B00F03C
:105790007DFB04468846CBE70DF111003F1A0DF161
:1057A000110404E00198401E7F1E0190641C2078C3
:1057B0003028F7D0BAF1660F02D10198401C04E0FE
:1057C000BAF1650F0CBF01200020336BC3189F4254
:1057D000B8BF7B1E002B1ED4BB4204DAE05C352828
:1057E000A8BF392000DA30201946621E02EB0108FA
:1057F00000E05B1E18F80179491E8742F9D039286C
:1058000002D1605C401C6054002904D50198401C02
:1058100014465B1C0190019800B200901BB2224616
:105820004946304600F014F80EB0BDE8F08700009D
:10583000CBCCCC0C0000244002FCFFFF0000E03F7A
:10584000FFFF0F80A08601000000F03F84D7974142
:105850002DE9F84783B005468A469146984600F000
:105860002BFEB8F1000F406A2F6B067803DC4FF077
:1058700001080FF2BC294AF02000BDF9304066282B
:1058800008BF641C13D0672840F08F8014F1040F08
:105890007ADBBC4278DA95F83800641C010702D440
:1058A000B845B8BF474620B23F1A48BF00270FFA95
:1058B00084FAE868A969BAF1000F23DC4A1C302396
:1058C0004354002F03DC95F83800010702D5E8683F
:1058D0008654521C17EB0A0FB8BF7C4224B2E7195A
:1058E00060424745B8BFB846AA6168620FFA88F4BB
:1058F000EC61E868AB6922464946184400F098FB21
:105900003F1B18E022B29045084416DA4246494649
:1059100000F08EFBA8694044A861AAEB0801002FA3
:10592000696203DC95F838100A0704D5E9680E545B
:10593000E869401CE861AF6299E0494600F078FBF5
:10594000A869002F5044A8EB040803DC95F8381030
:105950000A0702D5E9680E54401CA8610FFA88F0C6
:105960008742EB68A869B8BFB8460FFA88F209EB1E
:105970000A01184400F05CFBA9690FFA88F00144A1
:10598000A961381A686272E0B84504DA95F83810EF
:105990000A0758BF47467F1E48BF0027BAF1670F66
:1059A0000CBF4FF0650A4FF0450AA969EB68481C27
:1059B000A861002F19F8012B5A5403DC95F8381010
:1059C0000A0719D5E968431CAB610E54002F13DD9B
:1059D000A8F1010630B28742D5F80CC0B8BF3E46E8
:1059E00032B249460CEB030000F022FBA86936B244
:1059F0003018BF1BA8616F62E868A9690844002CD1
:105A000080F800A003D42B224270811C03E02D21DA
:105A100041706442811C00206A460AE023460A2441
:105A200093FBF4F404EB8406A3EB460302F8013B7A
:105A3000401C24B2002CF1DC012806DC4AF02002D4
:105A4000652A04BF302201F8012B48B9302001F843
:105A5000010B07E0401E1DF80030303301F8013B18
:105A60000028F7DCEA68A8691044091AE96195F88A
:105A7000380000F0140010280DD16A69A969686A1D
:105A80008A18E9698218A86A8A188218686B8242A3
:105A9000BCBF821A2A6204B0BDE8F087F8B505469B
:105AA0000E4617461C46002074B117F8011BB0685B
:105AB000A847B06030B1F06A401CF0620020641E5C
:105AC000F3D1F2BD4FF0FF30F2BD0000686A6C7494
:105AD0007A4C00007072696E74665F733A20256EAE
:105AE00020646973616C6C6F776564007072696EB5
:105AF00074663A2062616420256E20617267756D5C
:105B0000656E74007072696E74665F733A206261CC
:105B10006420257320617267756D656E74000000E6
:105B20006E616E004E414E00696E6600494E460041
:105B3000300030B4002513E050F8042BD30744BFE5
:105B4000A9F101039A18091F042942F8045BFAD24B
:105B500013468C0744BF15809B1CC90748BF1D70A6
:105B600050F8041B0029E7D130BC7047C9B2027855
:105B70008A421AB11CBF10F8012FF9E718BF0020A4
:105B800070470268531C03601170704780B500B9FC
:105B900006A005490B681BB122220021984701E0AD
:105BA00000F08EFC222002BD243CFF1F636F6E7349
:105BB000747261696E742068616E646C65723A20FB
:105BC000626164206D6573736167650000F10103B4
:105BD000810704D010F8011B820781B1FAD1026855
:105BE000A2F10131914311F0803104BF50F8042F2C
:105BF000F6E709BAB1FA81F100EBD100401CC01AF6
:105C00007047FF00C9B2830706D0521E22D310F896
:105C1000013B9942F7D11FE0083A13D302F1040285
:105C200041EA012141EA014150F8043B121F21BF22
:105C30004B40A3F1013C2CEA030C1CF0803FF3D055
:105C4000C9B2001F083210F8013B521E28BF91EA6A
:105C5000030FF8D818BF0120401E7047BBBBE1B14D
:105C6000B2F5803F80F07E80022A1ED98C46B1FBBF
:105C7000F2F102FB11C31B0443EA1043B3FBF2FC35
:105C800002FB1C3380B240EA0343B3FBF2F002FB99
:105C9000103240EA0C4000237047022A05D984469E
:105CA000B0FBF2F002FB10C270474AB105D100F020
:105CB000010249085FEA3000704700220023704764
:105CC00000F002BC0B00020000210020704790424F
:105CD00071EB030CF6D3B3F5803F2FD2F0B5B3FAD6
:105CE00083F7B1FA81F4A7F10F0E3D1B5340CEF1BB
:105CF000200602FA0EF2F3415340B5F10F0746D8E1
:105D00000F3C2C444140C4F12006A040F1414140E9
:105D1000B1FBF3F603FB1611A2FB0645001BA941DC
:105D200002D2761E8018594180EA010221FA0EF350
:105D300062FA0EF200215A403046F0BD30B4B1FB99
:105D4000F3FC03FB1C11A2FB0C45001BA94103D271
:105D5000ACF1010C8018594130BC02460B4660463C
:105D600000217047B2F1807F65D3F0B5B2FA82F7B7
:105D7000B1FA81F4C7F10F063D1B22FA06F307F1D1
:105D8000110EF24120355A40B5F10F07B8D9414004
:105D9000C4F12006A040F1414140B1FBF3FC03FBFC
:105DA0001C11A2FB0C45001BA94103D2BCF1010C44
:105DB000801859410F2F12D30F3FC90341EA5041B8
:105DC000B1FBF3F603FB1611A2FB0645D4EBC03082
:105DD000A94102D2761E8018594146EACC3C07B34D
:105DE0004140C7F12006B840F1414140B1FBF3F614
:105DF00003FB1611A2FB0645001BA94102D2761E29
:105E00008018594180EA010221FA0EF3C7F12004FB
:105E100062FA0EF20CFA07F05A402CFA04F1304301
:105E2000F0BD80EA010221FA0EF3002162FA0EF2BF
:105E300060465A40F0BD8C46B1FBF2F102FB11C343
:105E40001B0243EA1063B3FBF2FC02FB1C331B0290
:105E50004CEA002043EA1063B3FBF2FC02FB1C3364
:105E60001B024CEA002043EA1063B3FBF2FC02FB86
:105E70001C331B024CEA002043EA1063B3FBF2FC24
:105E800002FB1C324CEA002000237047B0B581EAC7
:105E9000030C0CF0004C40F2FF7515EA11541DBFC5
:105EA00015EA1357AC42AF4239E0E41923EA4553EF
:105EB00043F48013C90241F0004141EA505EC70239
:105EC0001100A7FB020200284FF00000EEFB0120AA
:105ED0004FF00001E3FB072118BF42F00102401818
:105EE00000214941E3FB0E01A4F580640F0302D2B7
:105EF00052004041494154F101046CDD470872F100
:105F0000004250F1000051EB0451A1F580115CBF3B
:105F100041EA0C01B0BD4CEA05510020B0BD05EAD4
:105F20001357AC4214BFAF4241E050EA410E1CBFD0
:105F300052EA430E02E061460020B0BD24423C44D8
:105F40001BD15FEA070EF6D0090302BF014600200D
:105F5000AEF1140EB1FA81F7AEEB070401FA07FEB9
:105F60000C37C7F1200100FA07F7C8404EEA000ECF
:105F700023EA455343F48013A2E733F00043B3FA16
:105F800083F704BFB2FA82FE77440B3FE41BB7F1FC
:105F9000200E2FBF02FA0EF3BB40C7F1200E22FAEB
:105FA0000EFE38BF43EA0E03BA40641C82E750EA93
:105FB000410E14BF52EA430E6FF000014FF4001778
:105FC00017EB430F8ABF194617EB410FB5E74CEAB1
:105FD00005510020B0BDD4F10104B4F120070FDA5F
:105FE000C4F12007520828BF42F0010210FA07F559
:105FF00001FA07F7E1BF2A43E0403843E1400FE0F0
:10600000352C98DCC7F1200452EA400220FA07F24E
:1060100018BF42F0010231FA07F0A1400A43002103
:1060200072F1004250F1000051EB0C01B0BD01FED5
:1060300062B38B0708D0521E11F8013B00F8013BF8
:1060400000F024808B07F6D1830740F0208000BF4A
:10605000103A07D330B4B1E83810103AA0E838103D
:10606000F9D230BC530724BFB1E80810A0E80810EB
:1060700044BF51F8043B40F8043BD20724BF31F839
:10608000022B20F8022B44BF0B7803707047121FBD
:1060900017D35B0009D151F8043B20F8023B1B0CDD
:1060A000121F20F8023BF6D20BE051F8043B00F837
:1060B000013B1B0A20F8023B1B0C121F00F8013B9E
:1060C000F3D238BF121D521E24BF11F8013B00F855
:1060D000013BF8D87047FE0110B5144600F002F8F5
:1060E000226010BDC1F30A5343B14A0012F5001FEC
:1060F00028D2A3F2FE32A1EB0251704750EA410CC4
:1061000020D001F0004C31EA0C01B1FA81F204BF59
:10611000B0FA80F3D2180B3AB2F120032CBF00FA88
:1061200003F1914041EA0C013EBFC2F1200C20FA7C
:106130000CF319439040524240F2FD33D21A01EB66
:106140000351704700227047F0B540F2FF7581EAB5
:10615000030C0CF0004C15EA11541DBF15EA13573F
:10616000AC42AF42E5E0BC41C1F31301C3F31303FA
:10617000801A994143F4801304D2641E40004941BF
:1061800080185941C90241EA5051B1FBF3F603FBB3
:106190001611A2FB0675D7EBC020A94102D2761ECC
:1061A00080185941C90241EA5051B1FBF3FE03FB8B
:1061B0001E11A2FB0E75D7EBC020A94103D2AEF190
:1061C000010E80185941890241EA9051760546EA4C
:1061D0008E2EB1FBF3F603FB1611A2FB0675D7EB6F
:1061E0008020A94102D2761E80185941C90241EA95
:1061F00050514EEA060EB1FBF3F603FB1611A2FB5B
:106200000675D7EBC020A94102D2761E80185941ED
:10621000C90241EA5051B1FBF3F703FB1711A2FB8E
:106220000735D3EBC020A94167F100070CBF00423E
:1062300047F0010766F3D5274FEA1E31B80814F579
:10624000806412DDBD0775F1004250EB0E5051EB3A
:10625000045111F5801F5CBF41EA0C01F0BD4CF008
:106260007F6141F0E0410020F0BDBD076D0840EACC
:106270000E5041F48011D4F10104B4F120060ADA81
:10628000C4F120060200E04001FA06F3E1401843A1
:10629000B24015430EE0342C13DCC6F1200445EA6D
:1062A00040056D0820FA06F2154321FA06F0A140D8
:1062B0000D43002175F1004250F1000051EB0C013B
:1062C000F0BD00205FEA0C01F0BDCFB992185B4130
:1062D000B3FA83F704BFB2FA82F6BF190B3FB7F1E6
:1062E00020062FBF02FA06F3BB40C7F1200622FAB0
:1062F00006F638BF3343BA401CB1E419641E33E7D5
:106300007F4231F00041B1FA81F404BFB0FA80F667
:10631000A4190B3CB4F120062FBF00FA06F1A140EE
:10632000C4F1200620FA06F638BF3143A0403C1BDA
:106330001AE7AC421ABF05EA1357AF4212E050EA1F
:1063400041061CBF52EA4306BFE750EA4107304608
:1063500061461CBF41EA0551F0BD52EA430C08BF3B
:10636000C143F0BD00204FF4001616EB410F98BF5B
:1063700016EB430F08BF16EB410F24BFC14305E0E6
:1063800016EB430F0CBF61464CEA0551F0BD00000F
:10639000400D491840EA81200CD2490DA1F58061D9
:1063A000491C40F0004005DBD1F11F0154BFC8403B
:1063B000C017704700207047014648B1B0FA80F11D
:1063C0008840C91CC1F58461090501EBD021400555
:1063D0007047000070B44FF0004591EA030F40F1A0
:1063E0007D806B40841A71EB030603D2001BB14120
:1063F000121973414FF4001C1CEB410F34BF7CEBAE
:10640000430442E00C0DA4EB1356352E4FDC45EA55
:10641000C323DB0A45EAC121C912B6F120050DDD0F
:1064200063FA05F6EB4086EA0305124218BF45F011
:106430000105C01851F100010CD213E062FA06F513
:10644000F2405540F3415A40B340F3405A4080185F
:10645000594107D349085FEA30005FEA350528BF94
:1064600045F0010501F58011420875F1004250F137
:10647000000041EB04514E0016F5001F70BC38BF00
:1064800070470020090D090570471CEB410F10D221
:1064900052EA43060BD0BCEB410F05D80C0DAB43C1
:1064A000661E342EB6DD02E0AB438018594170BC45
:1064B000704770BC70470000004870470C20FF1FF9
:1064C000012000F0C1B800007047000070B44FF028
:1064D000004591EA030F7FF585AF6B40841A71EB9D
:1064E000030604D26E40001BB141121973414FF4F0
:1064F000001C1CEB410F34BF7CEB430683E00C0D0A
:10650000A4EB1356362E00F37C80012E45EAC323FC
:1065100041DC43EA525312BFD20292025B082405C7
:1065200045EAC12141EA5051D2EBC020994125D41E
:1065300007D1B0FA80F610FA06F162D000202036BA
:1065400008E0B1FA81F6B140C6F1200220FA02F269
:106550001143B0404FEAF474B4EB465434F00106F2
:106560004FEA74040AD8D6F50016760D04F00044FC
:10657000F04061FA06F25040F1404840C00A40EA5B
:10658000415021F0004128BF5FEA500550F1000062
:1065900044EBD12135E0DB0A45EAC121C90AB6F155
:1065A00020050EDD42EA0242120CC5F1200603FA74
:1065B00006F6EB4042EA06056D42984161F10001A2
:1065C0000DE062FA06F5F240554063FA06FC82EAF5
:1065D0000C02F3405A406D42904161EB030111F40B
:1065E000801F05D1641E620502D06D004041494103
:1065F00021F48011430875F1004350F1000041EB94
:10660000045170BC70471CEB410F15D223F00043BE
:1066100052EA43060BD04FEA4C0CBCEB410F04D8B6
:106620000C0D661E342EB7DDEBE7801A994150EA57
:10663000410608BF0021E4E708BF1CEB430F28BF59
:106640006FF00001DDE7000020210903263118204A
:10665000ABBEF9E7012210F01F018A40DFF8981461
:1066600003005BB25B0941F82320704710B500249A
:1066700001F052F9C10703D50121DFF88024117020
:10668000810703D50121DFF874245170410703D538
:106690000121DFF868249170010703D50121DFF89B
:1066A0005C24D17010BD3EB500F090F9002000F0E0
:1066B000A7F9002000F0C5F901F0EBFADFF840047B
:1066C000006864214843FEF7DAF80FF2E9110F2061
:1066D00001F0FFFB01F00AF9FFF7C8FFDFF81C44E7
:1066E000207801282DD100F0F5FFDFF818040068AC
:1066F000019001F005FC4FF6FF7500232A00DFF83A
:106700000814019801F06DFDDFF800043C21418080
:1067100050210180DFF8840D01F0C4FE00232A001F
:10672000DFF8EC13019801F05CFD6E20ADF8060077
:10673000002000902B000422DFF8D813019802F00B
:1067400081F80FF24D11672001F0C3FB0FF26911C0
:10675000102001F0BEFB0020DFF8BC134880DFF8FA
:10676000BC030168002002F0A3F80FF25511542079
:1067700001F0AFFB0420FEF74FF90720FEF7C8FA3F
:1067800000F0A5F900F07EF900F099F94420FFF738
:1067900061FF00F07EF95FF47A310020FEF790F996
:1067A000DFF87C03FEF778F902F0C0F8DFF8740335
:1067B0000178012915D100210170DFF86C53288878
:1067C0000A302880B5F90000282802DB7FF0270076
:1067D0002880B5F9000000F013F9B5F9000000F0C9
:1067E00030F9DFF848532878012805D102F0B0F8D5
:1067F00001F02FF800202870DFF834030178012918
:1068000001D100210170DFF82C030178012923D187
:1068100000210170C8480168491C0160DFF8205D53
:10682000002169805121298000234FF6FF72016801
:10683000286801F031FD207801280AD100F090F994
:10684000A078012805D14FF41671DFF8500C02F042
:10685000D3F80120FEF700F9B84D287801280FD1B0
:10686000B74801880A310180018840F6B832914268
:1068700002DB4FF4FA71018000F0B7FF00202870AE
:10688000B0480178012991D1002101708EE7000004
:1068900038B5AD4908680028FBD00D685FF0FF30BF
:1068A00008601D242800E040C00701D501F02EFE3D
:1068B00031BD00007047000080B501F047FE01BD0A
:1068C00010B5A24C2068401C206001209D49087032
:1068D0000A202168226892FBF0F200FB12100028C7
:1068E00004D1FEF7B6FA01209449087014202168FB
:1068F000226892FBF0F200FB1210002819D101204F
:106900008C49087000218520FDF7A7FE00F0C1F832
:10691000012002F045FB40428D490860012002F051
:1069200056FB022002F03CFB8A490860022002F07C
:106930004EFB32202168226892FBF0F200FB12101D
:10694000002802D101207A49087064202168226859
:1069500092FBF0F200FB1210002802D101207349D3
:1069600008702068B0F57A7F0BDB01206D49087054
:1069700079480168491C0160002020600020FEF772
:106980006BF876480168022903DB0168491E016043
:1069900009E00168012906D10168491E0160012151
:1069A0001120FDF75AFEDFF8DC0C016851F00101FF
:1069B000016010BD80B501218520FDF74EFEDFF896
:1069C000C80C016851F00101016001BD10B542F22F
:1069D0001074002322000221002002F000F900239D
:1069E00022000321002002F0FAF8002201210720F2
:1069F000FDF7D8FD002201210820FDF7D3FD10BDD1
:106A000010B50400002C0DD4652C01DB64200400BB
:106A100000210720FDF721FE22000221002002F0C4
:106A2000B0F90DE06434652C01DB64200400012121
:106A30000720FDF712FE22000221002002F0A1F93A
:106A400010BD10B50400002C0DD4652C01DB6420B2
:106A5000040000210820FDF700FE22000321002091
:106A600002F08FF90DE06434652C01DB6420040032
:106A700001210820FDF7F1FD22000321002002F092
:106A800080F910BD80B5012201218520FDF78AFD26
:106A900001BD80B52A4801882048006841434FF471
:106AA0007A7091FBF0F1012001F002FFDFF8DC1BAE
:106AB000552001F00EFA4520FFF7CCFD01BD80B551
:106AC000012002F0E9F9022002F0E6F901BD80B5EB
:106AD000012201211120FDF765FD01BD80B5DFF820
:106AE000B00B0368DFF8AC2B084801680A4800685F
:106AF00001F03EF901BD000000E100E0D037FF1FCA
:106B0000E43BFF1FA0BD00006CBD00001804FF1F88
:106B10007CBD00001C1FFF1FCC37FF1FEC3BFF1F7D
:106B200098BD0000833CFF1F7A3CFF1F823CFF1F83
:106B3000813CFF1F803CFF1FB837FF1F7F3CFF1FBA
:106B40008C20FF1F7E3CFF1FA0900440B437FF1F26
:106B5000C037FF1FC437FF1FC837FF1FBC37FF1FD9
:106B60002DE9F84F2DED0E8BADF5645D94B001F07D
:106B7000F6FC4FF41672DFF82419DFF8180B02F058
:106B80004BFA50243C208DF8080000205FF00008EC
:106B900039273C2F11DA11208046B8F13F0F0ADA6D
:106BA000DFF8F00A2100C9B201FB0781AA22425492
:106BB00018F10108F1E77F1CEBE7012542F28C6038
:106BC00068444FF4965102F073FA41F2CC306844B5
:106BD000DFF8C41A4FF49652FFF73AFA43A84FF47D
:106BE000965102F065FADFF8AC1A9DF80820521EA3
:106BF0002000C0B24243885C81280BDB42F28C61EA
:106C000069449DF808205020424301EB020000F83F
:106C1000505C6D1C01262000C0B286423DDADFF8D0
:106C2000740A9DF80810491E2200D2B202FB0161CD
:106C3000415C81292FDB9DF80810491E2200D2B249
:106C400002FB0161084410F8010C002816D0502006
:106C500042F28C6169449DF808204243114431445A
:106C600042F28C626A449DF8083000FB03F0104445
:106C7000304410F8510C01F8500C0CE042F28C61D9
:106C800069449DF808205020424301EB0200304443
:106C900000F8505C6D1C761CBDE79DF80810891E3D
:106CA000002900F1DB80DFF8EC292000C0B200FBF6
:106CB00001F0105C81281EDB4B1C2000C0B2434356
:106CC000D05C81280FDB502042F28C636B4400FBC8
:106CD00001F73B4493F8503042F28C676F4400FB5D
:106CE00001F03B5407E042F28C606844502303FB00
:106CF00001F3C5546D1C01202300DBB2984246DA33
:106D00002300DBB203FB0103D35C812B3DDB4B1C77
:106D10002600F6B206FB0303D35C812B11DB502364
:106D200042F28C666E4403FB01F73E4442F28C67EC
:106D30006F4403FB01F33B44034493F85030335456
:106D400023E02300DBB203FB0103134413F8013CEF
:106D5000812B11DB502342F28C666E4403FB01F75A
:106D60003E4442F28C676F4403FB01F33B4403440F
:106D700013F8013C335408E042F28C636B44502614
:106D800006FB01F633441D546D1C401CB4E7220081
:106D9000D2B2521E012A2DDB502342F28C6068448D
:106DA00003FB01F63044805C002821D042F28C6065
:106DB000684403FB01F63044805C42F28C666E440A
:106DC00003FB01F73E44164416F8016CB0420FD2A3
:106DD00042F28C60684403FB01F63044104442F2F6
:106DE0008C666E4403FB01F333449B5C00F8013C6A
:106DF000521ECFE700262000C0B2401E86422BDA8A
:106E0000502242F28C60684402FB01F31844805D1A
:106E100000281FD042F28C60684402FB01F3184442
:106E2000805D42F28C636B4402FB01F73B443344C8
:106E30005B7898420ED242F28C60684402FB01F308
:106E40001844304442F28C636B4402FB01F21A4452
:106E5000925D4270761CCEE7491E21E70DF5405049
:106E600090F8D3088DF80B0000208DF80A005FF031
:106E700000089DF8080080455DDA0020060020002B
:106E8000C0B2864254DA5021DFF8100801FB08F244
:106E90001044805D8DF80A009DF80A00512809DB36
:106EA00041F2CC3068442100C9B201FB0861642280
:106EB000425424E09DF80A00502820DA41F2CC32F6
:106EC0006A442300DBB203FB0863DFF8C877A446FB
:106ED0005FFA8CFC9DF80A000CFB080C17F80C00FC
:106EE000D05443A801FB08F2104442F28C626A4479
:106EF00001FB08F111449DF80A20895C81550A20A4
:106F000098FBF0F100FB1180002806D00A2096FBC8
:106F1000F0F100FB1160002808D141F2CC30684448
:106F20002100C9B201FB0861C8224254761CA6E7C1
:106F300018F101089DE707A83C2102F0B9F89FED80
:106F4000C08B2000C0B2FFF737FA02000B0051ECF3
:106F5000180BFEF79BFF02000B000020DFF8401724
:106F6000FFF7B4FA02F0A8F88DF81C0034A83C2111
:106F700002F09EF88DF8D04025A83C2102F098F848
:106F800016A83C2102F094F89DF808008DF809003D
:106F90005FF0000B002006909DF808707F1E002F08
:106FA00000F10A810DF1D00808F807400120060021
:106FB0002000C0B2401E864221DA43A8502101FBC6
:106FC00007F10844805D9DF80B10884215D19DF8AB
:106FD0000900874202DA38008DF8090018F8070026
:106FE000864201DA08F8076025A8C15DB14200DADF
:106FF000C65516A8C15D491CC155761CD8E70DF1D0
:10700000580A1AF80700002800F0D480DFF8940628
:10701000C15D18F80720914246D325A9CA5DDFF863
:107020008836DB5D9A423FD29DF808200F3A97429E
:107030003ADA16A8384440780AF80700CA5D1AF808
:107040000700121A521C08F80720232F01DABBF19F
:10705000010B0DF11C09C85DFFF7AEF9CDE9000188
:107060001AF80700FFF7A8F95FF06632DFF83C3640
:10707000FEF70CFF02000B00DDE90001FFF7AAF9A3
:1070800053EC182BFFF722FA02F016F809F8070064
:1070900041F2CC3169442200D2B219F8070002FB58
:1070A00007021E2088546AE0C05D18F80710884265
:1070B00045D225A9C85DDFF8F025D25D90423ED3C8
:1070C0009DF808000F38874239DA16A8384440780E
:1070D0000AF8070018F807201AF807008218501E4F
:1070E000C855232F01DA1BF1010B0DF11C0918F80B
:1070F0000700FFF761F9CDE900011AF80700FFF773
